000003610008376008030001587750000                        شفيع أحمد محمد امتياز أحمد221071267100000000008900026062019205691172900000000000000000AHMAD MOHAMMAD              
000003610196876008030001570650000                                    عبد اللة رضي  226463716200000000008900026062019205430784880000000000000000 MASKUR RIDHO               
000003610227576008030001692350000                  عبدالعزيز عبدالعظيم محمد عبداللة224424953400000000008900026062019205567001960000000000000000ABDELAZIZ ABDELAZIM         
000003610281376008030001916543200                                     أنجاي عثمان  239999978400000000008900026062019205529266980000000000000000DIAYE OUSMAN                
000003610344576008030001654950000                                     كولي روستام  239812624900000000008900026062019205629732590000000000000000KOLY RUSTAM                 
000003710006176008030002055943200                             الحربي سالم صلح سالم 101592875500000000009800026062019205043651210000000000000000ALHARBI SALEM               
000003710021276008030001148950000                              ملح علءالدين محمد   224561328200000000008900026062019205520810770000000000000000MALLAH ALAAEDDIN            
000003710228276008030001268950000                            بن عبدالرش  سميع اللة 221960282400000000008900026062019205660152220000000000000000RASHID SAMIULLAH            
000003710250076008030002074043200                               العوفي سعد مليك سعد104523481000000000009800026062019205600066550000000000000000ALOUFI SAAD                 
000003710253676008030001271150000                               محمد مالك أحمد شريف222974288300000000008900026062019205909029750000000000000000MOHAMED MALEK               
000003710260276008030002920043200                     بن رهادي دايو محمد هداية اللة246347204900000000008900026062019205535427380000000000000000HIDAYATULLAH DAYU           
000003810002876008030001272450000                                   سليمان ابوبكر  224463781100000000008900026062019205580947900000000000000000 ABOUBAKAR                  
000003810015176008030001271450000                               أول ناصرالدين عباس 224431328000000000008900026062019205664878020000000000000000AWAL NASIRUDEEN             
000003810200576008030002178743200                                    يابل إدم عمر  227958484700000000008900026062019205483693270000000000000000 ADAM                       
